{
  "address": "0xB9083ef822A44fE432Cc07E99fD4da32e2254cC5",
  "abi": [
    {
      "inputs": [
        {
          "internalType": "address",
          "name": "priceFeedAddress",
          "type": "address"
        }
      ],
      "stateMutability": "nonpayable",
      "type": "constructor"
    },
    {
      "stateMutability": "payable",
      "type": "fallback"
    },
    {
      "inputs": [],
      "name": "MINIMUM_USD",
      "outputs": [
        {
          "internalType": "uint256",
          "name": "",
          "type": "uint256"
        }
      ],
      "stateMutability": "view",
      "type": "function"
    },
    {
      "inputs": [
        {
          "internalType": "address",
          "name": "",
          "type": "address"
        }
      ],
      "name": "addressToAmount",
      "outputs": [
        {
          "internalType": "uint256",
          "name": "",
          "type": "uint256"
        }
      ],
      "stateMutability": "view",
      "type": "function"
    },
    {
      "inputs": [],
      "name": "fund",
      "outputs": [],
      "stateMutability": "payable",
      "type": "function"
    },
    {
      "inputs": [
        {
          "internalType": "uint256",
          "name": "",
          "type": "uint256"
        }
      ],
      "name": "funders",
      "outputs": [
        {
          "internalType": "address",
          "name": "",
          "type": "address"
        }
      ],
      "stateMutability": "view",
      "type": "function"
    },
    {
      "inputs": [],
      "name": "getFunders",
      "outputs": [
        {
          "internalType": "address[]",
          "name": "",
          "type": "address[]"
        }
      ],
      "stateMutability": "view",
      "type": "function"
    },
    {
      "inputs": [],
      "name": "getPriceFeed",
      "outputs": [
        {
          "internalType": "contract AggregatorV3Interface",
          "name": "",
          "type": "address"
        }
      ],
      "stateMutability": "view",
      "type": "function"
    },
    {
      "inputs": [],
      "name": "owner",
      "outputs": [
        {
          "internalType": "address",
          "name": "",
          "type": "address"
        }
      ],
      "stateMutability": "view",
      "type": "function"
    },
    {
      "inputs": [],
      "name": "priceFeed",
      "outputs": [
        {
          "internalType": "contract AggregatorV3Interface",
          "name": "",
          "type": "address"
        }
      ],
      "stateMutability": "view",
      "type": "function"
    },
    {
      "inputs": [],
      "name": "withdraw",
      "outputs": [],
      "stateMutability": "payable",
      "type": "function"
    },
    {
      "stateMutability": "payable",
      "type": "receive"
    }
  ],
  "transactionHash": "0xbd368706fb47c676deb96076735f45f71ba6d1c4634be74f8b0ec20a4735873e",
  "args": [
    "0xD4a33860578De61DBAbDc8BFdb98FD742fA7028e"
  ],
  "numDeployments": 2,
  "solcInputHash": "508de9322009430422626521998499d5",
  "bytecode": "0x60a06040523480156200001157600080fd5b50604051620011d7380380620011d783398181016040528101906200003791906200011d565b3373ffffffffffffffffffffffffffffffffffffffff1660808173ffffffffffffffffffffffffffffffffffffffff168152505080600260006101000a81548173ffffffffffffffffffffffffffffffffffffffff021916908373ffffffffffffffffffffffffffffffffffffffff160217905550506200014f565b600080fd5b600073ffffffffffffffffffffffffffffffffffffffff82169050919050565b6000620000e582620000b8565b9050919050565b620000f781620000d8565b81146200010357600080fd5b50565b6000815190506200011781620000ec565b92915050565b600060208284031215620001365762000135620000b3565b5b6000620001468482850162000106565b91505092915050565b608051611065620001726000396000818161035b015261063b01526110656000f3fe60806040526004361061008a5760003560e01c80638da5cb5b116100595780638da5cb5b146101405780639e87a5cd1461016b578063b60d428814610196578063dc0d3dff146101a0578063ea63a044146101dd57610099565b80633c7e7d28146100a35780633ccfd60b146100e05780636b69a592146100ea578063741bef1a1461011557610099565b3661009957610097610208565b005b6100a1610208565b005b3480156100af57600080fd5b506100ca60048036038101906100c5919061092b565b610341565b6040516100d79190610971565b60405180910390f35b6100e8610359565b005b3480156100f657600080fd5b506100ff610606565b60405161010c9190610971565b60405180910390f35b34801561012157600080fd5b5061012a610613565b60405161013791906109eb565b60405180910390f35b34801561014c57600080fd5b50610155610639565b6040516101629190610a15565b60405180910390f35b34801561017757600080fd5b5061018061065d565b60405161018d91906109eb565b60405180910390f35b61019e610208565b005b3480156101ac57600080fd5b506101c760048036038101906101c29190610a5c565b610687565b6040516101d49190610a15565b60405180910390f35b3480156101e957600080fd5b506101f26106c6565b6040516101ff9190610b47565b60405180910390f35b6802b5e3af16b1880000610247600260009054906101000a900473ffffffffffffffffffffffffffffffffffffffff163461075490919063ffffffff16565b11610287576040517f08c379a000000000000000000000000000000000000000000000000000000000815260040161027e90610bc6565b60405180910390fd5b6001339080600181540180825580915050600190039060005260206000200160009091909190916101000a81548173ffffffffffffffffffffffffffffffffffffffff021916908373ffffffffffffffffffffffffffffffffffffffff160217905550346000803373ffffffffffffffffffffffffffffffffffffffff1673ffffffffffffffffffffffffffffffffffffffff16815260200190815260200160002060008282546103389190610c15565b92505081905550565b60006020528060005260406000206000915090505481565b7f000000000000000000000000000000000000000000000000000000000000000073ffffffffffffffffffffffffffffffffffffffff163373ffffffffffffffffffffffffffffffffffffffff16146103e7576040517f08c379a00000000000000000000000000000000000000000000000000000000081526004016103de90610c95565b60405180910390fd5b6000600180548060200260200160405190810160405280929190818152602001828054801561046b57602002820191906000526020600020905b8160009054906101000a900473ffffffffffffffffffffffffffffffffffffffff1673ffffffffffffffffffffffffffffffffffffffff1681526020019060010190808311610421575b5050505050905060005b81518110156104f557600082828151811061049357610492610cb5565b5b6020026020010151905060008060008373ffffffffffffffffffffffffffffffffffffffff1673ffffffffffffffffffffffffffffffffffffffff168152602001908152602001600020819055505080806104ed90610ce4565b915050610475565b50600067ffffffffffffffff81111561051157610510610d2c565b5b60405190808252806020026020018201604052801561053f5781602001602082028036833780820191505090505b5060019080519060200190610555929190610821565b5060003373ffffffffffffffffffffffffffffffffffffffff164760405161057c90610d8c565b60006040518083038185875af1925050503d80600081146105b9576040519150601f19603f3d011682016040523d82523d6000602084013e6105be565b606091505b5050905080610602576040517f08c379a00000000000000000000000000000000000000000000000000000000081526004016105f990610ded565b60405180910390fd5b5050565b6802b5e3af16b188000081565b600260009054906101000a900473ffffffffffffffffffffffffffffffffffffffff1681565b7f000000000000000000000000000000000000000000000000000000000000000081565b6000600260009054906101000a900473ffffffffffffffffffffffffffffffffffffffff16905090565b6001818154811061069757600080fd5b906000526020600020016000915054906101000a900473ffffffffffffffffffffffffffffffffffffffff1681565b6060600180548060200260200160405190810160405280929190818152602001828054801561074a57602002820191906000526020600020905b8160009054906101000a900473ffffffffffffffffffffffffffffffffffffffff1673ffffffffffffffffffffffffffffffffffffffff1681526020019060010190808311610700575b5050505050905090565b60008061076083610790565b90506000670de0b6b3a764000085836107799190610e0d565b6107839190610e7e565b9050809250505092915050565b6000808273ffffffffffffffffffffffffffffffffffffffff1663feaf968c6040518163ffffffff1660e01b815260040160a060405180830381865afa1580156107de573d6000803e3d6000fd5b505050506040513d601f19601f820116820180604052508101906108029190610f3c565b5050509150506402540be400816108199190610fb7565b915050919050565b82805482825590600052602060002090810192821561089a579160200282015b828111156108995782518260006101000a81548173ffffffffffffffffffffffffffffffffffffffff021916908373ffffffffffffffffffffffffffffffffffffffff16021790555091602001919060010190610841565b5b5090506108a791906108ab565b5090565b5b808211156108c45760008160009055506001016108ac565b5090565b600080fd5b600073ffffffffffffffffffffffffffffffffffffffff82169050919050565b60006108f8826108cd565b9050919050565b610908816108ed565b811461091357600080fd5b50565b600081359050610925816108ff565b92915050565b600060208284031215610941576109406108c8565b5b600061094f84828501610916565b91505092915050565b6000819050919050565b61096b81610958565b82525050565b60006020820190506109866000830184610962565b92915050565b6000819050919050565b60006109b16109ac6109a7846108cd565b61098c565b6108cd565b9050919050565b60006109c382610996565b9050919050565b60006109d5826109b8565b9050919050565b6109e5816109ca565b82525050565b6000602082019050610a0060008301846109dc565b92915050565b610a0f816108ed565b82525050565b6000602082019050610a2a6000830184610a06565b92915050565b610a3981610958565b8114610a4457600080fd5b50565b600081359050610a5681610a30565b92915050565b600060208284031215610a7257610a716108c8565b5b6000610a8084828501610a47565b91505092915050565b600081519050919050565b600082825260208201905092915050565b6000819050602082019050919050565b610abe816108ed565b82525050565b6000610ad08383610ab5565b60208301905092915050565b6000602082019050919050565b6000610af482610a89565b610afe8185610a94565b9350610b0983610aa5565b8060005b83811015610b3a578151610b218882610ac4565b9750610b2c83610adc565b925050600181019050610b0d565b5085935050505092915050565b60006020820190508181036000830152610b618184610ae9565b905092915050565b600082825260208201905092915050565b7f616d6f756e742073686f756c642062652067726561746572207468616e203100600082015250565b6000610bb0601f83610b69565b9150610bbb82610b7a565b602082019050919050565b60006020820190508181036000830152610bdf81610ba3565b9050919050565b7f4e487b7100000000000000000000000000000000000000000000000000000000600052601160045260246000fd5b6000610c2082610958565b9150610c2b83610958565b9250828201905080821115610c4357610c42610be6565b5b92915050565b7f6e6f7420417574686f72697a6564000000000000000000000000000000000000600082015250565b6000610c7f600e83610b69565b9150610c8a82610c49565b602082019050919050565b60006020820190508181036000830152610cae81610c72565b9050919050565b7f4e487b7100000000000000000000000000000000000000000000000000000000600052603260045260246000fd5b6000610cef82610958565b91507fffffffffffffffffffffffffffffffffffffffffffffffffffffffffffffffff8203610d2157610d20610be6565b5b600182019050919050565b7f4e487b7100000000000000000000000000000000000000000000000000000000600052604160045260246000fd5b600081905092915050565b50565b6000610d76600083610d5b565b9150610d8182610d66565b600082019050919050565b6000610d9782610d69565b9150819050919050565b7f63616c6c206661696c6564000000000000000000000000000000000000000000600082015250565b6000610dd7600b83610b69565b9150610de282610da1565b602082019050919050565b60006020820190508181036000830152610e0681610dca565b9050919050565b6000610e1882610958565b9150610e2383610958565b9250828202610e3181610958565b91508282048414831517610e4857610e47610be6565b5b5092915050565b7f4e487b7100000000000000000000000000000000000000000000000000000000600052601260045260246000fd5b6000610e8982610958565b9150610e9483610958565b925082610ea457610ea3610e4f565b5b828204905092915050565b600069ffffffffffffffffffff82169050919050565b610ece81610eaf565b8114610ed957600080fd5b50565b600081519050610eeb81610ec5565b92915050565b6000819050919050565b610f0481610ef1565b8114610f0f57600080fd5b50565b600081519050610f2181610efb565b92915050565b600081519050610f3681610a30565b92915050565b600080600080600060a08688031215610f5857610f576108c8565b5b6000610f6688828901610edc565b9550506020610f7788828901610f12565b9450506040610f8888828901610f27565b9350506060610f9988828901610f27565b9250506080610faa88828901610edc565b9150509295509295909350565b6000610fc282610ef1565b9150610fcd83610ef1565b9250828202610fdb81610ef1565b91507f8000000000000000000000000000000000000000000000000000000000000000841460008412161561101357611012610be6565b5b828205841483151761102857611027610be6565b5b509291505056fea264697066735822122030108c208407a47e67f282f98560e9e6804c7f4f53dea3ca64d79f569ba7a27b64736f6c63430008110033",
  "devdoc": {
    "kind": "dev",
    "methods": {},
    "version": 1
  },
  "userdoc": {
    "kind": "user",
    "methods": {},
    "version": 1
  },
  "storageLayout": {
    "storage": [
      {
        "astId": 63,
        "contract": "contracts/FundMe.sol:FundMe",
        "label": "addressToAmount",
        "offset": 0,
        "slot": "0",
        "type": "t_mapping(t_address,t_uint256)"
      },
      {
        "astId": 66,
        "contract": "contracts/FundMe.sol:FundMe",
        "label": "funders",
        "offset": 0,
        "slot": "1",
        "type": "t_array(t_address)dyn_storage"
      },
      {
        "astId": 69,
        "contract": "contracts/FundMe.sol:FundMe",
        "label": "priceFeed",
        "offset": 0,
        "slot": "2",
        "type": "t_contract(AggregatorV3Interface)45"
      }
    ],
    "types": {
      "t_address": {
        "encoding": "inplace",
        "label": "address",
        "numberOfBytes": "20"
      },
      "t_array(t_address)dyn_storage": {
        "base": "t_address",
        "encoding": "dynamic_array",
        "label": "address[]",
        "numberOfBytes": "32"
      },
      "t_contract(AggregatorV3Interface)45": {
        "encoding": "inplace",
        "label": "contract AggregatorV3Interface",
        "numberOfBytes": "20"
      },
      "t_mapping(t_address,t_uint256)": {
        "encoding": "mapping",
        "key": "t_address",
        "label": "mapping(address => uint256)",
        "numberOfBytes": "32",
        "value": "t_uint256"
      },
      "t_uint256": {
        "encoding": "inplace",
        "label": "uint256",
        "numberOfBytes": "32"
      }
    }
  }
}