{
  "address": "0xE456612aA4452Ec456AC4a29f1eF7597aA625bf0",
  "abi": [
    {
      "inputs": [
        {
          "internalType": "address",
          "name": "priceFeedAddress",
          "type": "address"
        }
      ],
      "stateMutability": "nonpayable",
      "type": "constructor"
    },
    {
      "stateMutability": "payable",
      "type": "fallback"
    },
    {
      "inputs": [],
      "name": "MINIMUM_USD",
      "outputs": [
        {
          "internalType": "uint256",
          "name": "",
          "type": "uint256"
        }
      ],
      "stateMutability": "view",
      "type": "function"
    },
    {
      "inputs": [],
      "name": "fund",
      "outputs": [],
      "stateMutability": "payable",
      "type": "function"
    },
    {
      "inputs": [
        {
          "internalType": "uint256",
          "name": "",
          "type": "uint256"
        }
      ],
      "name": "funders",
      "outputs": [
        {
          "internalType": "address",
          "name": "",
          "type": "address"
        }
      ],
      "stateMutability": "view",
      "type": "function"
    },
    {
      "inputs": [],
      "name": "owner",
      "outputs": [
        {
          "internalType": "address",
          "name": "",
          "type": "address"
        }
      ],
      "stateMutability": "view",
      "type": "function"
    },
    {
      "inputs": [],
      "name": "withdraw",
      "outputs": [],
      "stateMutability": "nonpayable",
      "type": "function"
    },
    {
      "stateMutability": "payable",
      "type": "receive"
    }
  ],
  "transactionHash": "0x7981107180a966dca326725bc42f0a93bf14fbabc3c3a483ebd44e9bec3e4a16",
  "args": [
    "0xD4a33860578De61DBAbDc8BFdb98FD742fA7028e"
  ],
  "numDeployments": 1,
  "solcInputHash": "36560fdd07f93e51e9ad3f5fbb2b035c",
  "bytecode": "0x60a060405234801561001057600080fd5b50604051610dca380380610dca83398181016040528101906100329190610110565b3373ffffffffffffffffffffffffffffffffffffffff1660808173ffffffffffffffffffffffffffffffffffffffff168152505080600260006101000a81548173ffffffffffffffffffffffffffffffffffffffff021916908373ffffffffffffffffffffffffffffffffffffffff1602179055505061013d565b600080fd5b600073ffffffffffffffffffffffffffffffffffffffff82169050919050565b60006100dd826100b2565b9050919050565b6100ed816100d2565b81146100f857600080fd5b50565b60008151905061010a816100e4565b92915050565b600060208284031215610126576101256100ad565b5b6000610134848285016100fb565b91505092915050565b608051610c6b61015f6000396000818161025601526104ac0152610c6b6000f3fe60806040526004361061004e5760003560e01c80633ccfd60b146100675780636b69a5921461007e5780638da5cb5b146100a9578063b60d4288146100d4578063dc0d3dff146100de5761005d565b3661005d5761005b61011b565b005b61006561011b565b005b34801561007357600080fd5b5061007c610254565b005b34801561008a57600080fd5b5061009361049d565b6040516100a0919061069a565b60405180910390f35b3480156100b557600080fd5b506100be6104aa565b6040516100cb91906106f6565b60405180910390f35b6100dc61011b565b005b3480156100ea57600080fd5b5061010560048036038101906101009190610742565b6104ce565b60405161011291906106f6565b60405180910390f35b6802b5e3af16b188000061015a600260009054906101000a900473ffffffffffffffffffffffffffffffffffffffff163461050d90919063ffffffff16565b1161019a576040517f08c379a0000000000000000000000000000000000000000000000000000000008152600401610191906107cc565b60405180910390fd5b6001339080600181540180825580915050600190039060005260206000200160009091909190916101000a81548173ffffffffffffffffffffffffffffffffffffffff021916908373ffffffffffffffffffffffffffffffffffffffff160217905550346000803373ffffffffffffffffffffffffffffffffffffffff1673ffffffffffffffffffffffffffffffffffffffff168152602001908152602001600020600082825461024b919061081b565b92505081905550565b7f000000000000000000000000000000000000000000000000000000000000000073ffffffffffffffffffffffffffffffffffffffff163373ffffffffffffffffffffffffffffffffffffffff16146102e2576040517f08c379a00000000000000000000000000000000000000000000000000000000081526004016102d99061089b565b60405180910390fd5b60005b60018054905081101561038d57600060018281548110610308576103076108bb565b5b9060005260206000200160009054906101000a900473ffffffffffffffffffffffffffffffffffffffff16905060008060008373ffffffffffffffffffffffffffffffffffffffff1673ffffffffffffffffffffffffffffffffffffffff16815260200190815260200160002081905550508080610385906108ea565b9150506102e5565b50600067ffffffffffffffff8111156103a9576103a8610932565b5b6040519080825280602002602001820160405280156103d75781602001602082028036833780820191505090505b50600190805190602001906103ed9291906105da565b5060003373ffffffffffffffffffffffffffffffffffffffff164760405161041490610992565b60006040518083038185875af1925050503d8060008114610451576040519150601f19603f3d011682016040523d82523d6000602084013e610456565b606091505b505090508061049a576040517f08c379a0000000000000000000000000000000000000000000000000000000008152600401610491906109f3565b60405180910390fd5b50565b6802b5e3af16b188000081565b7f000000000000000000000000000000000000000000000000000000000000000081565b600181815481106104de57600080fd5b906000526020600020016000915054906101000a900473ffffffffffffffffffffffffffffffffffffffff1681565b60008061051983610549565b90506000670de0b6b3a764000085836105329190610a13565b61053c9190610a84565b9050809250505092915050565b6000808273ffffffffffffffffffffffffffffffffffffffff1663feaf968c6040518163ffffffff1660e01b815260040160a060405180830381865afa158015610597573d6000803e3d6000fd5b505050506040513d601f19601f820116820180604052508101906105bb9190610b42565b5050509150506402540be400816105d29190610bbd565b915050919050565b828054828255906000526020600020908101928215610653579160200282015b828111156106525782518260006101000a81548173ffffffffffffffffffffffffffffffffffffffff021916908373ffffffffffffffffffffffffffffffffffffffff160217905550916020019190600101906105fa565b5b5090506106609190610664565b5090565b5b8082111561067d576000816000905550600101610665565b5090565b6000819050919050565b61069481610681565b82525050565b60006020820190506106af600083018461068b565b92915050565b600073ffffffffffffffffffffffffffffffffffffffff82169050919050565b60006106e0826106b5565b9050919050565b6106f0816106d5565b82525050565b600060208201905061070b60008301846106e7565b92915050565b600080fd5b61071f81610681565b811461072a57600080fd5b50565b60008135905061073c81610716565b92915050565b60006020828403121561075857610757610711565b5b60006107668482850161072d565b91505092915050565b600082825260208201905092915050565b7f616d6f756e742073686f756c642062652067726561746572207468616e203100600082015250565b60006107b6601f8361076f565b91506107c182610780565b602082019050919050565b600060208201905081810360008301526107e5816107a9565b9050919050565b7f4e487b7100000000000000000000000000000000000000000000000000000000600052601160045260246000fd5b600061082682610681565b915061083183610681565b9250828201905080821115610849576108486107ec565b5b92915050565b7f6e6f7420417574686f72697a6564000000000000000000000000000000000000600082015250565b6000610885600e8361076f565b91506108908261084f565b602082019050919050565b600060208201905081810360008301526108b481610878565b9050919050565b7f4e487b7100000000000000000000000000000000000000000000000000000000600052603260045260246000fd5b60006108f582610681565b91507fffffffffffffffffffffffffffffffffffffffffffffffffffffffffffffffff8203610927576109266107ec565b5b600182019050919050565b7f4e487b7100000000000000000000000000000000000000000000000000000000600052604160045260246000fd5b600081905092915050565b50565b600061097c600083610961565b91506109878261096c565b600082019050919050565b600061099d8261096f565b9150819050919050565b7f63616c6c206661696c6564000000000000000000000000000000000000000000600082015250565b60006109dd600b8361076f565b91506109e8826109a7565b602082019050919050565b60006020820190508181036000830152610a0c816109d0565b9050919050565b6000610a1e82610681565b9150610a2983610681565b9250828202610a3781610681565b91508282048414831517610a4e57610a4d6107ec565b5b5092915050565b7f4e487b7100000000000000000000000000000000000000000000000000000000600052601260045260246000fd5b6000610a8f82610681565b9150610a9a83610681565b925082610aaa57610aa9610a55565b5b828204905092915050565b600069ffffffffffffffffffff82169050919050565b610ad481610ab5565b8114610adf57600080fd5b50565b600081519050610af181610acb565b92915050565b6000819050919050565b610b0a81610af7565b8114610b1557600080fd5b50565b600081519050610b2781610b01565b92915050565b600081519050610b3c81610716565b92915050565b600080600080600060a08688031215610b5e57610b5d610711565b5b6000610b6c88828901610ae2565b9550506020610b7d88828901610b18565b9450506040610b8e88828901610b2d565b9350506060610b9f88828901610b2d565b9250506080610bb088828901610ae2565b9150509295509295909350565b6000610bc882610af7565b9150610bd383610af7565b9250828202610be181610af7565b91507f80000000000000000000000000000000000000000000000000000000000000008414600084121615610c1957610c186107ec565b5b8282058414831517610c2e57610c2d6107ec565b5b509291505056fea264697066735822122065aea0fae0cc2e1ce2334d4741b2847397e9cc96fc6a0bf6466fd53cacbea60364736f6c63430008110033",
  "devdoc": {
    "kind": "dev",
    "methods": {},
    "version": 1
  },
  "userdoc": {
    "kind": "user",
    "methods": {},
    "version": 1
  },
  "storageLayout": {
    "storage": [
      {
        "astId": 326,
        "contract": "contracts/FundMe.sol:FundMe",
        "label": "addressToAmount",
        "offset": 0,
        "slot": "0",
        "type": "t_mapping(t_address,t_uint256)"
      },
      {
        "astId": 329,
        "contract": "contracts/FundMe.sol:FundMe",
        "label": "funders",
        "offset": 0,
        "slot": "1",
        "type": "t_array(t_address)dyn_storage"
      },
      {
        "astId": 332,
        "contract": "contracts/FundMe.sol:FundMe",
        "label": "priceFeed",
        "offset": 0,
        "slot": "2",
        "type": "t_contract(AggregatorV3Interface)102"
      }
    ],
    "types": {
      "t_address": {
        "encoding": "inplace",
        "label": "address",
        "numberOfBytes": "20"
      },
      "t_array(t_address)dyn_storage": {
        "base": "t_address",
        "encoding": "dynamic_array",
        "label": "address[]",
        "numberOfBytes": "32"
      },
      "t_contract(AggregatorV3Interface)102": {
        "encoding": "inplace",
        "label": "contract AggregatorV3Interface",
        "numberOfBytes": "20"
      },
      "t_mapping(t_address,t_uint256)": {
        "encoding": "mapping",
        "key": "t_address",
        "label": "mapping(address => uint256)",
        "numberOfBytes": "32",
        "value": "t_uint256"
      },
      "t_uint256": {
        "encoding": "inplace",
        "label": "uint256",
        "numberOfBytes": "32"
      }
    }
  }
}